:100000000C9434000C9451000C9451000C94510049
:100010000C9451000C9451000C9451000C9451001C
:100020000C9451000C9451000C9451000C94110646
:100030000C9451000C9451000C9451000C945100FC
:100040000C9451000C9451000C9451000C945100EC
:100050000C9451000C9451000C9451000C945100DC
:100060000C9451000C94510011241FBECFEFD8E026
:10007000DEBFCDBF11E0A0E0B1E0E2E4F3E102C0F9
:1000800005900D92A83EB107D9F711E0A8EEB1E0B6
:1000900001C01D92A13FB107E1F70E948C060C94AC
:1000A0009F090C9400005E9A00C05E9808951F930B
:1000B000CF93DF931F92CDB7DEB7662311F05C9A22
:1000C00001C05C985D989AB19F609AB91BB1107F8E
:1000D000982F92959F70912B9BB989830E94530012
:1000E00089818F70812B8BB90E9453001F601BB9CF
:1000F0000F90DF91CF911F9108955C985D9A8AB11E
:10010000807F8AB95E9A00C089B15E9800C05E9A0D
:1001100000C099B15E989F708295807F892B089569
:100120000E947D0087FDFCCF82E090E00197F1F70F
:100130000C947D00CF93C82F0E94900060E08C2F1C
:10014000CF910C945700CF93C82F0E94900061E08C
:100150008C2FCF910C9457001F93CF93DF931F9256
:10016000CDB7DEB7182F69830E9490006981812F77
:10017000611102C0805801C080540F90DF91CF916F
:100180001F910C949A000E94900090E008950E94A4
:10019000900081E00C949A0082E00C949A00CF9336
:1001A000C82F0E949000CA3049F4803410F480E4D3
:1001B00001C080E08058CF910C949A0061E08C2FB0
:1001C000CF910C945700CF93DF93EC0102C00E94B3
:1001D000CF0089918111FBCFDF91CF910895CF930B
:1001E000DF93EC0102C00E94CF00FE0121968491B2
:1001F0008111F9CFDF91CF9108951F93CF93DF93B2
:10020000182F9AB19F679AB9E0E8FEE33197F1F7AA
:10021000599A589A0E945300E0E8F3E13197F1F7B8
:100220000E945300C0E4D0E0FE013197F1F70E9434
:100230005300FE013197F1F758980E94530021971F
:10024000F1F788E20E949A0088E00E949A000E94DA
:10025000C70086E00E949A00812FDF91CF911F9105
:100260000C949A000E94900080E80E949A008FE00F
:1002700091E00E94E3000E94900080EC0E949A00AE
:1002800080E291E00C94E300209A289A089528983F
:100290000895CF92DF92EF92FF920F931F93CF9327
:1002A000DF93CDB7DEB72C970FB6F894DEBF0FBE45
:1002B000CDBF229A2A9A8093E8011092E9016093B7
:1002C000EA011092EB014093EC011092ED012093B2
:1002D000EE011092EF01F894809181008860809384
:1002E000810080916F00826080936F0078948AEF24
:1002F00090E09093890080938800809181008360D2
:10030000809381000E94440182E4C82E81E0D82EAF
:100310008E010F5F1F4F52C0349923C0349921C002
:100320001092F0012FEF36E741E02150304040407D
:10033000E1F700C000000E9447010E94900080E8A1
:100340000E949A0081E391E00E94E3008FEF93ED19
:1003500020E3815090402040E1F700C000002A983F
:100360004DC00E94900080EC0E949A008091EF01A5
:100370008F938091EE018F938091ED018F93809107
:10038000EC018F938091EB018F938091EA018F9321
:10039000FF92EF92DF92CF921F930F930E94B106CC
:1003A000C8010E94E3008FE39CE90197F1F700C0C8
:1003B00000000FB6F894DEBF0FBECDBFE090E8019D
:1003C000F090E9011E141F040CF4A6CF8091EA01FD
:1003D0009091EB01181619060CF49ECF8091EC0158
:1003E0009091ED01181619060CF496CF8091EE014C
:1003F0009091EF01181619060CF48ECF0E94470158
:100400002A980E94900080E80E949A008AE591E074
:100410000E94E3000E94900080EC0E949A001F92CC
:100420001F928091ED018F938091EC018F938091C9
:10043000EB018F938091EA018F938091E9018F9373
:100440008091E8018F9382E491E09F938F938E01D6
:100450000F5F1F4F1F930F930E94B106C8010E94A8
:10046000E300389A0FB6F894DEBF0FBECDBF83E02D
:1004700090E0409A2FEF32E547E021503040404075
:10048000E1F700C0000040982FEF32E547E021502F
:1004900030404040E1F700C00000019751F7109252
:1004A000F001F8942C960FB6F894DEBF0FBECDBFC6
:1004B000DF91CF911F910F91FF90EF90DF90CF9040
:1004C0000895EF92FF920F931F93CF93DF9300D085
:1004D000CDB7DEB790E0019725E0289F7001299FF6
:1004E000F00C112480E091E0E80EF91EF701808104
:1004F00090E00E94B208182FF701818190E00E94DD
:10050000B208682FF701828190E06A830E94B208E6
:10051000482FF701838190E049830E94B208082F99
:10052000F701848190E00E94B208302F20E0282B50
:1005300049816A81143608F010E06C3308F060E0FD
:100540004C3308F040E0283EF3E03F0710F020E095
:1005500030E0812F0E9449010F900F90DF91CF91E1
:100560001F910F91FF90EF900C9432012F923F92C8
:100570004F925F926F927F928F929F92AF92BF92B3
:10058000CF92DF92EF92FF920F931F93CF93DF935F
:10059000CDB7DEB7A6970FB6F894DEBF0FBECDBFBE
:1005A000A82EB12C450121E0821A910885E0889D92
:1005B0008001899D100D112400501F4FF80180818A
:1005C00090E00E94B208382EF801818190E00E94EC
:1005D000B208482EF801828190E00E94B208582E9D
:1005E000F801838190E00E94B208F82EF80184811E
:1005F00090E00E94B2081F2D00E0082BF3E6F315EF
:1006000008F4312C2BE3241508F4412C3BE3351579
:1006100008F4512C083E83E0180710F000E010E0C9
:100620000E94900080EC0E949A001F930F931F92EB
:100630005F921F924F921F923F9282E491E09F93AC
:100640008F937E0191E1E90EF11CFF92EF920E94DF
:10065000B106C7010E94E3000E94900082EC0E9454
:100660009A000FB6F894DEBF0FBECDBF22242394AC
:1006700042E4642E41E0742ECC24C394D12CCC0EE1
:10068000DD1E85E0889D7001899DF00C112420E01D
:1006900031E0E20EF31E47013FEF831A930A970100
:1006A0002E5F3F4F3AA329A397012D5F3F4F3CA3F5
:1006B0002BA397012C5F3F4F3EA32DA3349915C068
:1006C0003FEF86E791E0315080409040E1F700C075
:1006D0000000EFEFF6E721E0E150F0402040E1F7C5
:1006E00000C00000349B43C1F2C0329915C03FEFF7
:1006F00086E791E0315080409040E1F700C0000073
:10070000EFEFF6E721E0E150F0402040E1F700C0D4
:100710000000329B50C0DBC0319915C03FEF86E727
:1007200091E0315080409040E1F700C00000EFEFD1
:10073000F6E721E0E150F0402040E1F700C0000082
:10074000319B3BC0C4C03399C2C03FEF86E791E004
:10075000315080409040E1F700C00000EFEFF6E735
:1007600021E0E150F0402040E1F700C00000339963
:10077000AEC033E0321508F4B8C0239482E02816E6
:1007800019F0231209C004C00E94900085EC07C034
:100790000E94900088EC03C00E9490008BEC0E94A5
:1007A0009A009FEFE6E7F1E09150E040F040E1F77A
:1007B00000C000008CC08BE201C08DE222E0221656
:1007C000C1F0221520F031E023124CC007C093E0A5
:1007D0002916D1F0E4E02E1245C021C08D3221F45B
:1007E000332061F13A943EC0F3E63F1651F1339461
:1007F00039C08D3221F4442031F14A9433C02BE3C7
:10080000421621F143942EC08D3221F4552001F17E
:100810005A9428C03BE35316F1F0539423C08D3211
:1008200031F401151105C9F0015011091BC0073E33
:1008300083E01807A9F00F5F1F4F14C033E6332E73
:1008400011C0312C0FC02BE3422E0CC0412C0AC02A
:100850009BE3592E07C0512C05C007EE13E002C0E0
:1008600000E010E00E94900080EC0E949A001F932C
:100870000F931F925F921F924F921F923F927F920F
:100880006F92DF92CF920E94B106C6010E94E300F0
:100890000FB6F894DEBF0FBECDBFF2E02F1651F0B9
:1008A00023E0221659F031E023120CC00E94900080
:1008B00082EC0BC00E94900085EC07C00E94900063
:1008C00088EC03C00E9490008BEC0E949A0080E0AC
:1008D0009FEFE0E7F2E09150E040F040E1F700C028
:1008E0000000882309F4EACE44C0632DF70180811B
:1008F00090E00E94BA08642DF401808190E00E948B
:10090000BA08652DE9A1FAA1808190E00E94BA0899
:10091000612FEBA1FCA1808190E00E94BA08602FBA
:10092000EDA1FEA1808190E00E94BA080E94900093
:1009300080EC0E949A00BF92AF928CE691E09F9368
:100940008F93DF92CF920E94B106C6010E94E3000E
:10095000FFEF27EA31E6F15020403040E1F700C0D8
:1009600000000F900F900F900F900F900F9081E06C
:10097000AFCF81E0A6960FB6F894DEBF0FBECDBF15
:10098000DF91CF911F910F91FF90EF90DF90CF906B
:10099000BF90AF909F908F907F906F905F904F909F
:1009A0003F902F900895CF92DF92EF92FF921F9386
:1009B000CF93DF931F92CDB7DEB71D990DC02FEFF8
:1009C00036E781E0215030408040E1F700C0000070
:1009D0001D9915C181E00EC01C990FC09FEF26E73D
:1009E00031E0915020403040E1F700C000001C99F8
:1009F00006C182E00E94610202C11B990DC08FEF07
:100A000096E721E0815090402040E1F700C00000CF
:100A10001B99F5C083E0EECF3399F1C03FEF86E735
:100A200091E0315080409040E1F700C000003399E0
:100A3000E6C00E94900080E80E949A008DE791E055
:100A40000E94E3000E94900080EC0E949A008EE8D1
:100A500091E00E94E30010E065EEE62E61E0F62EE4
:100A6000CC24C394D12CCC0EDD1E349928C02FEF9A
:100A700036E781E0215030408040E1F700C00000BF
:100A800034999AC00E94900080E80E949A008FE9F1
:100A900091E00E94E3000E94900080EC0E949A0086
:100AA00080EB91E00E94E3009FEF27EA31E691504E
:100AB00020403040E1F700C0000081E094C031994F
:100AC00010C08FEF96E721E0815090402040E1F781
:100AD00000C00000319970C0123008F497C0115066
:100AE0006BC0329910C03FEF86E791E031508040F3
:100AF0009040E1F700C0000032995EC0133009F465
:100B000081C01F5F59C01D990CC02FEF36E781E0EF
:100B1000215030408040E1F700C000001D9B72C0B2
:100B20004BC01C990CC09FEF26E731E0915020404C
:100B30003040E1F700C000001C9B66C03DC01B991F
:100B40000CC08FEF96E721E0815090402040E1F704
:100B500000C000001B9B5AC02FC0112369F13399BC
:100B60002BC03FEF86E791E0315080409040E1F7A5
:100B700000C00000339920C00E94900080E80E94CD
:100B80009A0081EC91E00E94E3000E94900080ECCA
:100B90000E949A0083ED91E00E94E3002FEF37EA74
:100BA00081E6215030408040E1F700C00000812FF5
:100BB0000E94B602811117C00E9490008EEC0E9424
:100BC0009A001F921F93FF92EF92DF92CF920E94A2
:100BD000B106C6010E94E3000F900F900F900F9096
:100BE0000F900F9080E09FEF20E732E0915020407F
:100BF0003040E1F700C00000882309F436CF0E949E
:100C0000320106C011E0D8CF12E0D6CF13E0D4CF26
:100C10000F90DF91CF911F91FF90EF90DF90CF90D9
:100C200008951F920F920FB60F9211242F933F93A6
:100C30004F935F938F939F938091E8019091E90187
:100C40002091EE013091EF011816190694F04091B1
:100C5000EA015091EB01141615065CF04091EC018D
:100C60005091ED011416150624F0121613060CF01F
:100C700047C0121613063CF4215031093093EF019E
:100C80002093EE013EC02091EC013091ED0112164F
:100C900013066CF487EE93E09093EF018093EE01DE
:100CA000215031093093ED012093EC012AC02091AD
:100CB000EA013091EB01121613064CF42150310970
:100CC0003093EB012093EA018BE390E00EC01816FD
:100CD0001906B4F401979093E9018093E8018BE33E
:100CE00090E09093EB018093EA019093ED01809363
:100CF000EC0187EE93E09093EF018093EE0101C049
:100D0000F8949F918F915F914F913F912F910F9008
:100D10000FBE0F901F9018958FE00E94FD000E945B
:100D20003201229A2A9825982D9A24982C9A239851
:100D30002B9A3C98449A3B98439A3A98429A39980D
:100D4000419A389A40981092F0010E94D3042FEFF4
:100D500080E792E0215080409040E1F700C0000021
:100D6000F4CFA0E1B0E0E7EBF6E00C9476090F8950
:100D7000188D86E08C831A8309838FEF9FE79E830B
:100D80008D83AE01455E5F4F588B4F87698D7A8D9D
:100D9000CE0101960E94D506EF81F885E00FF11F84
:100DA00010826096E4E00C949209ACE0B0E0EBEDC8
:100DB000F6E00C9468097C016B018A01FC01178242
:100DC0001682838181FFC7C188248394912C8C0E65
:100DD0009D1EF7019381F60193FD859193FF81910B
:100DE0006F01882309F4B3C1853239F493FD8591ED
:100DF00093FF81916F01853229F4B70190E00E9441
:100E0000DE08E7CF712C312C20E02032A8F48B32A1
:100E100061F028F4803251F0833271F40BC08D32CE
:100E200039F0803349F4216028C02260246025C055
:100E3000286023C0206121C027FD27C0382F3053F0
:100E40003A3078F426FF06C0FAE07F9E300D112478
:100E5000732E13C08AE0389E300D1124332E206289
:100E60000CC08E3221F426FD72C1206406C08C367F
:100E700011F4206802C0883641F4F60193FD859193
:100E800093FF81916F018111C0CF982F95549330BA
:100E900018F09052933028F40C5F1F4FFFE3F98352
:100EA0000DC0833631F0833771F0833509F05EC0B1
:100EB00023C0F801808189830E5F1F4F66246394ED
:100EC000712C540115C02801F2E04F0E511CF8019D
:100ED000A080B18026FF03C0672D70E002C06FEFD5
:100EE0007FEFC5012C870E94D3083C0182012C852D
:100EF0006FE7262E222218C02801F2E04F0E511C67
:100F0000F801A080B18026FF03C0672D70E002C009
:100F10006FEF7FEFC5012C870E94C8083C012C852C
:100F200050E8252E222A820123FC1CC006C0B701EE
:100F300080E290E00E94DE083A94832D90E06816EB
:100F40007906A8F30FC0F50127FC859127FE819152
:100F50005F01B70190E00E94DE0831103A94F1E0A1
:100F60006F1A71086114710471F7EEC0843611F0C4
:100F7000893641F5F80127FF07C0608171818281C0
:100F800093810C5F1F4F08C060817181882777FDB6
:100F90008095982F0E5F1F4F4FE6642E622297FFB9
:100FA00009C090958095709561957F4F8F4F9F4FA9
:100FB000F0E86F2A2AE030E0A4010E940A09A82E76
:100FC000A81844C0853731F43FEEB32EB2222AE090
:100FD00030E024C099EFB92EB2228F36B9F020F458
:100FE000883509F0B4C00DC0803721F0883709F08A
:100FF000AEC002C020E1B22AB4FE0BC084E0B82A21
:1010000008C024FF09C0E6E0BE2A06C028E030E0A0
:1010100005C020E130E002C020E132E0F801B7FE77
:1010200007C060817181828193810C5F1F4F06C070
:101030006081718180E090E00E5F1F4FA4010E94EB
:101040000A09A82EA8188FE7682E6B2066FE0BC031
:10105000362D3E7FA71450F464FE0AC062FC08C01F
:10106000362D3E7E05C0BA2C362D03C0BA2C01C0E9
:10107000B72C34FF0DC0FE01EA0DF11D80818033D5
:1010800011F4397E09C032FF06C0B394B39404C092
:10109000832F867809F0B39433FD14C030FF0FC05E
:1010A0007A2CB31460F4730C7B18B32C08C0B7010E
:1010B00080E290E03C870E94DE08B3943C85B31444
:1010C000B0F304C0B31410F43B1801C0312C34FF4A
:1010D00012C0B70180E390E03C870E94DE083C85A7
:1010E00032FF1EC031FF03C088E590E002C088E7F0
:1010F00090E0B7010CC0832F867891F031FD02C0DB
:1011000080E201C08BE237FD8DE2B70190E00E94E2
:10111000DE0806C0B70180E390E00E94DE087A9402
:10112000A714C0F3AA94F401EA0DF11DB701808160
:1011300090E00E94DE08A110F5CF06C0B70180E262
:1011400090E00E94DE083A943110F8CF42CEF701C9
:101150002681378102C02FEF3FEFC9012C96E2E1D3
:101160000C948409F999FECF92BD81BDF89A992714
:1011700080B50895262FF999FECF1FBA92BD81BD83
:1011800020BD0FB6F894FA9AF99A0FBE0196089509
:10119000FC010590615070400110D8F78095909542
:1011A0008E0F9F1F0895FC01615070400190011047
:1011B000D8F7809590958E0F9F1F08950F931F93DA
:1011C000CF93DF938C01EB018B8181FD03C00FEF87
:1011D0001FEF1AC082FF0DC02E813F818C819D813F
:1011E0002817390764F4E881F9810193F983E883CA
:1011F00006C0E885F985802F0995892B41F78E81F6
:101200009F8101969F838E83C801DF91CF911F91AB
:101210000F910895FA01AA27283051F1203181F168
:10122000E8946F936E7F6E5F7F4F8F4F9F4FAF4FEE
:10123000B1E03ED0B4E03CD0670F781F891F9A1F01
:10124000A11D680F791F8A1F911DA11D6A0F711DB5
:10125000811D911DA11D20D009F468943F912AE0C1
:10126000269F11243019305D3193DEF6CF010895A9
:10127000462F4770405D4193B3E00FD0C9F7F6CFDA
:10128000462F4F70405D4A3318F0495D31FD4052A2
:10129000419302D0A9F7EACFB4E0A6959795879538
:1012A00077956795BA95C9F7009761057105089517
:1012B0009B01AC010A2E06945795479537952795C3
:1012C000BA95C9F7620F731F841F951FA01D08955B
:1012D0002F923F924F925F926F927F928F929F9246
:1012E000AF92BF92CF92DF92EF92FF920F931F9334
:1012F000CF93DF93CDB7DEB7CA1BDB0B0FB6F894E5
:10130000DEBF0FBECDBF09942A88398848885F8424
:101310006E847D848C849B84AA84B984C884DF8095
:10132000EE80FD800C811B81AA81B981CE0FD11D79
:101330000FB6F894DEBF0FBECDBFED010895F8944F
:02134000FFCFDD
:101342000102030405060708090A0B0C0D0E0F2003
:101352002054454D504F52495A41444F522020008B
:101362003C3C2020202020202020202020203E3E07
:101372000020202043414E43454C41444F20202031
:1013820020002020253032643A253032643A25305C
:1013920032642E253033642020003C3C3C3C2054F7
:1013A20045524D494E4F203E3E3E3E004752415629
:1013B20041444F3A20256420202020200053454CF0
:1013C2004543494F4E452050524F47522E005052EE
:1013D200455353494F4E45204E2E3A20202000437C
:1013E200414E43454C41444F2050454C4F20200034
:1013F200202020204F50455241444F52202020208F
:1014020000494E494349414E444F2050524F4752A2
:1014120020200020202020202020202020202020EA
:081422002020202000256400B9
:00000001FF
